{
    "contractName": "TodoList",
    "abi": [
        {
            "inputs": [],
            "name": "taskCount",
            "outputs": [
                {
                    "internalType": "uint256",
                    "name": "",
                    "type": "uint256"
                }
            ],
            "stateMutability": "view",
            "type": "function"
        }
    ],
    "bytecode": "608060405260008055348015601357600080fd5b50607d806100226000396000f3fe6080604052348015600f57600080fd5b506004361060285760003560e01c8063b6cb58a514602d575b600080fd5b603560005481565b60405190815260200160405180910390f3fea264697066735822122041bfebbdaf39296ae8d51c91838cc9d5f9b214d0aef0974a75d982e60877615d64736f6c634300080b0033",
    "sourcePath": "c:/Projects/Sixer Internship/Blockchain/contracts/TodoList.sol",
    "compiler": {
        "name": "solc",
        "version": "0.8.11+commit.d7f03943"
    },
    "functionHashes": {
        "taskCount()": "b6cb58a5"
    },
    "gasEstimates": {
        "creation": {
            "codeDepositCost": "25000",
            "executionCost": "5081",
            "totalCost": "30081"
        },
        "external": {
            "taskCount()": "2261"
        }
    }
}